{
  "contracts/PrivateOffering.sol": {
    "PrivateOffering": {
      "abi": [
        {
          "anonymous": false,
          "inputs": [
            {
              "indexed": true,
              "internalType": "address",
              "name": "previousGovernor",
              "type": "address"
            },
            {
              "indexed": true,
              "internalType": "address",
              "name": "newGovernor",
              "type": "address"
            }
          ],
          "name": "GovernorshipTransferred",
          "type": "event"
        },
        {
          "anonymous": false,
          "inputs": [
            {
              "indexed": false,
              "internalType": "uint8",
              "name": "version",
              "type": "uint8"
            }
          ],
          "name": "Initialized",
          "type": "event"
        },
        {
          "inputs": [
            {
              "internalType": "string",
              "name": "name",
              "type": "string"
            },
            {
              "internalType": "address",
              "name": "token",
              "type": "address"
            }
          ],
          "name": "allowPayableToken",
          "outputs": [],
          "stateMutability": "nonpayable",
          "type": "function"
        },
        {
          "inputs": [
            {
              "internalType": "string",
              "name": "token",
              "type": "string"
            },
            {
              "internalType": "uint32",
              "name": "amount",
              "type": "uint32"
            }
          ],
          "name": "deposit100",
          "outputs": [],
          "stateMutability": "nonpayable",
          "type": "function"
        },
        {
          "inputs": [
            {
              "internalType": "string",
              "name": "token",
              "type": "string"
            },
            {
              "internalType": "uint32",
              "name": "amount",
              "type": "uint32"
            }
          ],
          "name": "deposit25",
          "outputs": [],
          "stateMutability": "nonpayable",
          "type": "function"
        },
        {
          "inputs": [
            {
              "internalType": "string",
              "name": "token",
              "type": "string"
            },
            {
              "internalType": "uint32",
              "name": "amount",
              "type": "uint32"
            }
          ],
          "name": "deposit50",
          "outputs": [],
          "stateMutability": "nonpayable",
          "type": "function"
        },
        {
          "inputs": [],
          "name": "getDepositAmount",
          "outputs": [
            {
              "internalType": "uint256",
              "name": "",
              "type": "uint256"
            }
          ],
          "stateMutability": "view",
          "type": "function"
        },
        {
          "inputs": [],
          "name": "getDepositTotal",
          "outputs": [
            {
              "internalType": "uint256",
              "name": "",
              "type": "uint256"
            }
          ],
          "stateMutability": "view",
          "type": "function"
        },
        {
          "inputs": [],
          "name": "getUnitPrice",
          "outputs": [
            {
              "internalType": "uint256",
              "name": "",
              "type": "uint256"
            }
          ],
          "stateMutability": "view",
          "type": "function"
        },
        {
          "inputs": [],
          "name": "governor",
          "outputs": [
            {
              "internalType": "address",
              "name": "",
              "type": "address"
            }
          ],
          "stateMutability": "view",
          "type": "function"
        },
        {
          "inputs": [
            {
              "internalType": "uint256",
              "name": "price",
              "type": "uint256"
            }
          ],
          "name": "initialize",
          "outputs": [],
          "stateMutability": "nonpayable",
          "type": "function"
        },
        {
          "inputs": [],
          "name": "renounceGovernorship",
          "outputs": [],
          "stateMutability": "nonpayable",
          "type": "function"
        },
        {
          "inputs": [
            {
              "internalType": "uint256",
              "name": "price",
              "type": "uint256"
            }
          ],
          "name": "setUnitPrice",
          "outputs": [],
          "stateMutability": "nonpayable",
          "type": "function"
        },
        {
          "inputs": [
            {
              "internalType": "address",
              "name": "newGovernor",
              "type": "address"
            }
          ],
          "name": "transferGovernorship",
          "outputs": [],
          "stateMutability": "nonpayable",
          "type": "function"
        },
        {
          "inputs": [
            {
              "internalType": "string",
              "name": "name",
              "type": "string"
            },
            {
              "internalType": "address",
              "name": "to",
              "type": "address"
            }
          ],
          "name": "withdrawPayableToken",
          "outputs": [],
          "stateMutability": "nonpayable",
          "type": "function"
        }
      ],
      "evm": {
        "bytecode": {
          "linkReferences": {},
          "object": "608060405234801561001057600080fd5b50610ce6806100206000396000f3fe608060405234801561001057600080fd5b50600436106100cf5760003560e01c806381c0c2631161008c578063b6aa515b11610066578063b6aa515b14610194578063b83e811b146101a7578063dc1b7328146101ba578063fe4b84df146101cd57600080fd5b806381c0c2631461016657806386844b4e1461016e578063995738181461018157600080fd5b8063012a33aa146100d45780630c340a24146100eb57806332394239146101065780634d43b5c21461011b5780635eefdd2b1461012e5780637d96f69314610146575b600080fd5b6099545b6040519081526020015b60405180910390f35b6065546040516001600160a01b0390911681526020016100e2565b610119610114366004610a1f565b6101e0565b005b610119610129366004610a73565b61025a565b336000908152609760205260409020600101546100d8565b33600090815260976020526040902054610100900463ffffffff166100d8565b61011961026c565b61011961017c366004610a73565b6102a2565b61011961018f366004610a1f565b6102af565b6101196101a2366004610ad3565b610461565b6101196101b5366004610a73565b6104dc565b6101196101c8366004610af5565b6104e9565b6101196101db366004610af5565b610518565b6065546001600160a01b031633146102135760405162461bcd60e51b815260040161020a90610b0e565b60405180910390fd5b8060988484604051610226929190610b35565b90815260405190819003602001902080546001600160a01b03929092166001600160a01b0319909216919091179055505050565b610267838383603261059b565b505050565b6065546001600160a01b031633146102965760405162461bcd60e51b815260040161020a90610b0e565b6102a06000610824565b565b610267838383606461059b565b600260335414156103025760405162461bcd60e51b815260206004820152601f60248201527f5265656e7472616e637947756172643a207265656e7472616e742063616c6c00604482015260640161020a565b60026033556065546001600160a01b031633146103315760405162461bcd60e51b815260040161020a90610b0e565b600060988484604051610345929190610b35565b908152604051908190036020018120546370a0823160e01b82523060048301526001600160a01b0316915060009082906370a082319060240160206040518083038186803b15801561039657600080fd5b505afa1580156103aa573d6000803e3d6000fd5b505050506040513d601f19601f820116820180604052508101906103ce9190610b45565b60405163a9059cbb60e01b81526001600160a01b038581166004830152602482018390529192509083169063a9059cbb90604401602060405180830381600087803b15801561041c57600080fd5b505af1158015610430573d6000803e3d6000fd5b505050506040513d601f19601f820116820180604052508101906104549190610b5e565b5050600160335550505050565b6065546001600160a01b0316331461048b5760405162461bcd60e51b815260040161020a90610b0e565b6001600160a01b0381166104d05760405162461bcd60e51b815260206004820152600c60248201526b5a45524f5f4144445245535360a01b604482015260640161020a565b6104d981610824565b50565b610267838383601961059b565b6065546001600160a01b031633146105135760405162461bcd60e51b815260040161020a90610b0e565b609955565b60006105246001610876565b9050801561053c576000805461ff0019166101001790555b610544610903565b61054c610932565b60998290558015610597576000805461ff0019169055604051600181527f7f26b83ff96e1f2b6a682f133852f6798a09c465da95921460cefb38474024989060200160405180910390a15b5050565b60008263ffffffff16116105e25760405162461bcd60e51b815260206004820152600e60248201526d1253959053125117d05353d5539560921b604482015260640161020a565b600060648263ffffffff166099548563ffffffff166106019190610b96565b61060b9190610b96565b6106159190610bb5565b905060988585604051610629929190610b35565b908152604051908190036020019020546001600160a01b03166323b872dd61064e3390565b6040516001600160e01b031960e084901b1681526001600160a01b03909116600482015230602482015260448101849052606401602060405180830381600087803b15801561069c57600080fd5b505af11580156106b0573d6000803e3d6000fd5b505050506040513d601f19601f820116820180604052508101906106d49190610b5e565b6107115760405162461bcd60e51b815260206004820152600e60248201526d2a2920a729a322a92fa2a92927a960911b604482015260640161020a565b3360009081526097602052604090205460ff16156107bd573360009081526097602052604090208054849190600190610756908490610100900463ffffffff16610bd7565b92506101000a81548163ffffffff021916908363ffffffff16021790555080609760006107803390565b6001600160a01b03166001600160a01b0316815260200190815260200160002060010160008282546107b29190610bff565b9091555061081d9050565b60408051606081018252600180825263ffffffff8681166020808501918252848601878152336000908152609790925295902093518454915164ffffffffff1990921690151564ffffffff00191617610100919092160217825591519101555b5050505050565b606580546001600160a01b038381166001600160a01b0319831681179093556040519116919082907fc7c0c772add429241571afb3805861fb3cfa2af374534088b76cdb4325a87e9a90600090a35050565b60008054610100900460ff16156108bd578160ff1660011480156108995750303b155b6108b55760405162461bcd60e51b815260040161020a90610c17565b506000919050565b60005460ff8084169116106108e45760405162461bcd60e51b815260040161020a90610c17565b506000805460ff191660ff92909216919091179055600190565b919050565b600054610100900460ff1661092a5760405162461bcd60e51b815260040161020a90610c65565b6102a0610961565b600054610100900460ff166109595760405162461bcd60e51b815260040161020a90610c65565b6102a0610991565b600054610100900460ff166109885760405162461bcd60e51b815260040161020a90610c65565b6102a033610824565b600054610100900460ff166109b85760405162461bcd60e51b815260040161020a90610c65565b6001603355565b60008083601f8401126109d157600080fd5b50813567ffffffffffffffff8111156109e957600080fd5b602083019150836020828501011115610a0157600080fd5b9250929050565b80356001600160a01b03811681146108fe57600080fd5b600080600060408486031215610a3457600080fd5b833567ffffffffffffffff811115610a4b57600080fd5b610a57868287016109bf565b9094509250610a6a905060208501610a08565b90509250925092565b600080600060408486031215610a8857600080fd5b833567ffffffffffffffff811115610a9f57600080fd5b610aab868287016109bf565b909450925050602084013563ffffffff81168114610ac857600080fd5b809150509250925092565b600060208284031215610ae557600080fd5b610aee82610a08565b9392505050565b600060208284031215610b0757600080fd5b5035919050565b6020808252600d908201526c474f5645524e4f525f4f4e4c5960981b604082015260600190565b8183823760009101908152919050565b600060208284031215610b5757600080fd5b5051919050565b600060208284031215610b7057600080fd5b81518015158114610aee57600080fd5b634e487b7160e01b600052601160045260246000fd5b6000816000190483118215151615610bb057610bb0610b80565b500290565b600082610bd257634e487b7160e01b600052601260045260246000fd5b500490565b600063ffffffff808316818516808303821115610bf657610bf6610b80565b01949350505050565b60008219821115610c1257610c12610b80565b500190565b6020808252602e908201527f496e697469616c697a61626c653a20636f6e747261637420697320616c72656160408201526d191e481a5b9a5d1a585b1a5e995960921b606082015260800190565b6020808252602b908201527f496e697469616c697a61626c653a20636f6e7472616374206973206e6f74206960408201526a6e697469616c697a696e6760a81b60608201526080019056fea2646970667358221220102a975f258d58a196d579ff7fca8f2fa53f935fe1c287b52c9a35e1de135a1564736f6c63430008090033",
          "opcodes": "PUSH1 0x80 PUSH1 0x40 MSTORE CALLVALUE DUP1 ISZERO PUSH2 0x10 JUMPI PUSH1 0x0 DUP1 REVERT JUMPDEST POP PUSH2 0xCE6 DUP1 PUSH2 0x20 PUSH1 0x0 CODECOPY PUSH1 0x0 RETURN INVALID PUSH1 0x80 PUSH1 0x40 MSTORE CALLVALUE DUP1 ISZERO PUSH2 0x10 JUMPI PUSH1 0x0 DUP1 REVERT JUMPDEST POP PUSH1 0x4 CALLDATASIZE LT PUSH2 0xCF JUMPI PUSH1 0x0 CALLDATALOAD PUSH1 0xE0 SHR DUP1 PUSH4 0x81C0C263 GT PUSH2 0x8C JUMPI DUP1 PUSH4 0xB6AA515B GT PUSH2 0x66 JUMPI DUP1 PUSH4 0xB6AA515B EQ PUSH2 0x194 JUMPI DUP1 PUSH4 0xB83E811B EQ PUSH2 0x1A7 JUMPI DUP1 PUSH4 0xDC1B7328 EQ PUSH2 0x1BA JUMPI DUP1 PUSH4 0xFE4B84DF EQ PUSH2 0x1CD JUMPI PUSH1 0x0 DUP1 REVERT JUMPDEST DUP1 PUSH4 0x81C0C263 EQ PUSH2 0x166 JUMPI DUP1 PUSH4 0x86844B4E EQ PUSH2 0x16E JUMPI DUP1 PUSH4 0x99573818 EQ PUSH2 0x181 JUMPI PUSH1 0x0 DUP1 REVERT JUMPDEST DUP1 PUSH4 0x12A33AA EQ PUSH2 0xD4 JUMPI DUP1 PUSH4 0xC340A24 EQ PUSH2 0xEB JUMPI DUP1 PUSH4 0x32394239 EQ PUSH2 0x106 JUMPI DUP1 PUSH4 0x4D43B5C2 EQ PUSH2 0x11B JUMPI DUP1 PUSH4 0x5EEFDD2B EQ PUSH2 0x12E JUMPI DUP1 PUSH4 0x7D96F693 EQ PUSH2 0x146 JUMPI JUMPDEST PUSH1 0x0 DUP1 REVERT JUMPDEST PUSH1 0x99 SLOAD JUMPDEST PUSH1 0x40 MLOAD SWAP1 DUP2 MSTORE PUSH1 0x20 ADD JUMPDEST PUSH1 0x40 MLOAD DUP1 SWAP2 SUB SWAP1 RETURN JUMPDEST PUSH1 0x65 SLOAD PUSH1 0x40 MLOAD PUSH1 0x1 PUSH1 0x1 PUSH1 0xA0 SHL SUB SWAP1 SWAP2 AND DUP2 MSTORE PUSH1 0x20 ADD PUSH2 0xE2 JUMP JUMPDEST PUSH2 0x119 PUSH2 0x114 CALLDATASIZE PUSH1 0x4 PUSH2 0xA1F JUMP JUMPDEST PUSH2 0x1E0 JUMP JUMPDEST STOP JUMPDEST PUSH2 0x119 PUSH2 0x129 CALLDATASIZE PUSH1 0x4 PUSH2 0xA73 JUMP JUMPDEST PUSH2 0x25A JUMP JUMPDEST CALLER PUSH1 0x0 SWAP1 DUP2 MSTORE PUSH1 0x97 PUSH1 0x20 MSTORE PUSH1 0x40 SWAP1 KECCAK256 PUSH1 0x1 ADD SLOAD PUSH2 0xD8 JUMP JUMPDEST CALLER PUSH1 0x0 SWAP1 DUP2 MSTORE PUSH1 0x97 PUSH1 0x20 MSTORE PUSH1 0x40 SWAP1 KECCAK256 SLOAD PUSH2 0x100 SWAP1 DIV PUSH4 0xFFFFFFFF AND PUSH2 0xD8 JUMP JUMPDEST PUSH2 0x119 PUSH2 0x26C JUMP JUMPDEST PUSH2 0x119 PUSH2 0x17C CALLDATASIZE PUSH1 0x4 PUSH2 0xA73 JUMP JUMPDEST PUSH2 0x2A2 JUMP JUMPDEST PUSH2 0x119 PUSH2 0x18F CALLDATASIZE PUSH1 0x4 PUSH2 0xA1F JUMP JUMPDEST PUSH2 0x2AF JUMP JUMPDEST PUSH2 0x119 PUSH2 0x1A2 CALLDATASIZE PUSH1 0x4 PUSH2 0xAD3 JUMP JUMPDEST PUSH2 0x461 JUMP JUMPDEST PUSH2 0x119 PUSH2 0x1B5 CALLDATASIZE PUSH1 0x4 PUSH2 0xA73 JUMP JUMPDEST PUSH2 0x4DC JUMP JUMPDEST PUSH2 0x119 PUSH2 0x1C8 CALLDATASIZE PUSH1 0x4 PUSH2 0xAF5 JUMP JUMPDEST PUSH2 0x4E9 JUMP JUMPDEST PUSH2 0x119 PUSH2 0x1DB CALLDATASIZE PUSH1 0x4 PUSH2 0xAF5 JUMP JUMPDEST PUSH2 0x518 JUMP JUMPDEST PUSH1 0x65 SLOAD PUSH1 0x1 PUSH1 0x1 PUSH1 0xA0 SHL SUB AND CALLER EQ PUSH2 0x213 JUMPI PUSH1 0x40 MLOAD PUSH3 0x461BCD PUSH1 0xE5 SHL DUP2 MSTORE PUSH1 0x4 ADD PUSH2 0x20A SWAP1 PUSH2 0xB0E JUMP JUMPDEST PUSH1 0x40 MLOAD DUP1 SWAP2 SUB SWAP1 REVERT JUMPDEST DUP1 PUSH1 0x98 DUP5 DUP5 PUSH1 0x40 MLOAD PUSH2 0x226 SWAP3 SWAP2 SWAP1 PUSH2 0xB35 JUMP JUMPDEST SWAP1 DUP2 MSTORE PUSH1 0x40 MLOAD SWAP1 DUP2 SWAP1 SUB PUSH1 0x20 ADD SWAP1 KECCAK256 DUP1 SLOAD PUSH1 0x1 PUSH1 0x1 PUSH1 0xA0 SHL SUB SWAP3 SWAP1 SWAP3 AND PUSH1 0x1 PUSH1 0x1 PUSH1 0xA0 SHL SUB NOT SWAP1 SWAP3 AND SWAP2 SWAP1 SWAP2 OR SWAP1 SSTORE POP POP POP JUMP JUMPDEST PUSH2 0x267 DUP4 DUP4 DUP4 PUSH1 0x32 PUSH2 0x59B JUMP JUMPDEST POP POP POP JUMP JUMPDEST PUSH1 0x65 SLOAD PUSH1 0x1 PUSH1 0x1 PUSH1 0xA0 SHL SUB AND CALLER EQ PUSH2 0x296 JUMPI PUSH1 0x40 MLOAD PUSH3 0x461BCD PUSH1 0xE5 SHL DUP2 MSTORE PUSH1 0x4 ADD PUSH2 0x20A SWAP1 PUSH2 0xB0E JUMP JUMPDEST PUSH2 0x2A0 PUSH1 0x0 PUSH2 0x824 JUMP JUMPDEST JUMP JUMPDEST PUSH2 0x267 DUP4 DUP4 DUP4 PUSH1 0x64 PUSH2 0x59B JUMP JUMPDEST PUSH1 0x2 PUSH1 0x33 SLOAD EQ ISZERO PUSH2 0x302 JUMPI PUSH1 0x40 MLOAD PUSH3 0x461BCD PUSH1 0xE5 SHL DUP2 MSTORE PUSH1 0x20 PUSH1 0x4 DUP3 ADD MSTORE PUSH1 0x1F PUSH1 0x24 DUP3 ADD MSTORE PUSH32 0x5265656E7472616E637947756172643A207265656E7472616E742063616C6C00 PUSH1 0x44 DUP3 ADD MSTORE PUSH1 0x64 ADD PUSH2 0x20A JUMP JUMPDEST PUSH1 0x2 PUSH1 0x33 SSTORE PUSH1 0x65 SLOAD PUSH1 0x1 PUSH1 0x1 PUSH1 0xA0 SHL SUB AND CALLER EQ PUSH2 0x331 JUMPI PUSH1 0x40 MLOAD PUSH3 0x461BCD PUSH1 0xE5 SHL DUP2 MSTORE PUSH1 0x4 ADD PUSH2 0x20A SWAP1 PUSH2 0xB0E JUMP JUMPDEST PUSH1 0x0 PUSH1 0x98 DUP5 DUP5 PUSH1 0x40 MLOAD PUSH2 0x345 SWAP3 SWAP2 SWAP1 PUSH2 0xB35 JUMP JUMPDEST SWAP1 DUP2 MSTORE PUSH1 0x40 MLOAD SWAP1 DUP2 SWAP1 SUB PUSH1 0x20 ADD DUP2 KECCAK256 SLOAD PUSH4 0x70A08231 PUSH1 0xE0 SHL DUP3 MSTORE ADDRESS PUSH1 0x4 DUP4 ADD MSTORE PUSH1 0x1 PUSH1 0x1 PUSH1 0xA0 SHL SUB AND SWAP2 POP PUSH1 0x0 SWAP1 DUP3 SWAP1 PUSH4 0x70A08231 SWAP1 PUSH1 0x24 ADD PUSH1 0x20 PUSH1 0x40 MLOAD DUP1 DUP4 SUB DUP2 DUP7 DUP1 EXTCODESIZE ISZERO DUP1 ISZERO PUSH2 0x396 JUMPI PUSH1 0x0 DUP1 REVERT JUMPDEST POP GAS STATICCALL ISZERO DUP1 ISZERO PUSH2 0x3AA JUMPI RETURNDATASIZE PUSH1 0x0 DUP1 RETURNDATACOPY RETURNDATASIZE PUSH1 0x0 REVERT JUMPDEST POP POP POP POP PUSH1 0x40 MLOAD RETURNDATASIZE PUSH1 0x1F NOT PUSH1 0x1F DUP3 ADD AND DUP3 ADD DUP1 PUSH1 0x40 MSTORE POP DUP2 ADD SWAP1 PUSH2 0x3CE SWAP2 SWAP1 PUSH2 0xB45 JUMP JUMPDEST PUSH1 0x40 MLOAD PUSH4 0xA9059CBB PUSH1 0xE0 SHL DUP2 MSTORE PUSH1 0x1 PUSH1 0x1 PUSH1 0xA0 SHL SUB DUP6 DUP2 AND PUSH1 0x4 DUP4 ADD MSTORE PUSH1 0x24 DUP3 ADD DUP4 SWAP1 MSTORE SWAP2 SWAP3 POP SWAP1 DUP4 AND SWAP1 PUSH4 0xA9059CBB SWAP1 PUSH1 0x44 ADD PUSH1 0x20 PUSH1 0x40 MLOAD DUP1 DUP4 SUB DUP2 PUSH1 0x0 DUP8 DUP1 EXTCODESIZE ISZERO DUP1 ISZERO PUSH2 0x41C JUMPI PUSH1 0x0 DUP1 REVERT JUMPDEST POP GAS CALL ISZERO DUP1 ISZERO PUSH2 0x430 JUMPI RETURNDATASIZE PUSH1 0x0 DUP1 RETURNDATACOPY RETURNDATASIZE PUSH1 0x0 REVERT JUMPDEST POP POP POP POP PUSH1 0x40 MLOAD RETURNDATASIZE PUSH1 0x1F NOT PUSH1 0x1F DUP3 ADD AND DUP3 ADD DUP1 PUSH1 0x40 MSTORE POP DUP2 ADD SWAP1 PUSH2 0x454 SWAP2 SWAP1 PUSH2 0xB5E JUMP JUMPDEST POP POP PUSH1 0x1 PUSH1 0x33 SSTORE POP POP POP POP JUMP JUMPDEST PUSH1 0x65 SLOAD PUSH1 0x1 PUSH1 0x1 PUSH1 0xA0 SHL SUB AND CALLER EQ PUSH2 0x48B JUMPI PUSH1 0x40 MLOAD PUSH3 0x461BCD PUSH1 0xE5 SHL DUP2 MSTORE PUSH1 0x4 ADD PUSH2 0x20A SWAP1 PUSH2 0xB0E JUMP JUMPDEST PUSH1 0x1 PUSH1 0x1 PUSH1 0xA0 SHL SUB DUP2 AND PUSH2 0x4D0 JUMPI PUSH1 0x40 MLOAD PUSH3 0x461BCD PUSH1 0xE5 SHL DUP2 MSTORE PUSH1 0x20 PUSH1 0x4 DUP3 ADD MSTORE PUSH1 0xC PUSH1 0x24 DUP3 ADD MSTORE PUSH12 0x5A45524F5F41444452455353 PUSH1 0xA0 SHL PUSH1 0x44 DUP3 ADD MSTORE PUSH1 0x64 ADD PUSH2 0x20A JUMP JUMPDEST PUSH2 0x4D9 DUP2 PUSH2 0x824 JUMP JUMPDEST POP JUMP JUMPDEST PUSH2 0x267 DUP4 DUP4 DUP4 PUSH1 0x19 PUSH2 0x59B JUMP JUMPDEST PUSH1 0x65 SLOAD PUSH1 0x1 PUSH1 0x1 PUSH1 0xA0 SHL SUB AND CALLER EQ PUSH2 0x513 JUMPI PUSH1 0x40 MLOAD PUSH3 0x461BCD PUSH1 0xE5 SHL DUP2 MSTORE PUSH1 0x4 ADD PUSH2 0x20A SWAP1 PUSH2 0xB0E JUMP JUMPDEST PUSH1 0x99 SSTORE JUMP JUMPDEST PUSH1 0x0 PUSH2 0x524 PUSH1 0x1 PUSH2 0x876 JUMP JUMPDEST SWAP1 POP DUP1 ISZERO PUSH2 0x53C JUMPI PUSH1 0x0 DUP1 SLOAD PUSH2 0xFF00 NOT AND PUSH2 0x100 OR SWAP1 SSTORE JUMPDEST PUSH2 0x544 PUSH2 0x903 JUMP JUMPDEST PUSH2 0x54C PUSH2 0x932 JUMP JUMPDEST PUSH1 0x99 DUP3 SWAP1 SSTORE DUP1 ISZERO PUSH2 0x597 JUMPI PUSH1 0x0 DUP1 SLOAD PUSH2 0xFF00 NOT AND SWAP1 SSTORE PUSH1 0x40 MLOAD PUSH1 0x1 DUP2 MSTORE PUSH32 0x7F26B83FF96E1F2B6A682F133852F6798A09C465DA95921460CEFB3847402498 SWAP1 PUSH1 0x20 ADD PUSH1 0x40 MLOAD DUP1 SWAP2 SUB SWAP1 LOG1 JUMPDEST POP POP JUMP JUMPDEST PUSH1 0x0 DUP3 PUSH4 0xFFFFFFFF AND GT PUSH2 0x5E2 JUMPI PUSH1 0x40 MLOAD PUSH3 0x461BCD PUSH1 0xE5 SHL DUP2 MSTORE PUSH1 0x20 PUSH1 0x4 DUP3 ADD MSTORE PUSH1 0xE PUSH1 0x24 DUP3 ADD MSTORE PUSH14 0x1253959053125117D05353D55395 PUSH1 0x92 SHL PUSH1 0x44 DUP3 ADD MSTORE PUSH1 0x64 ADD PUSH2 0x20A JUMP JUMPDEST PUSH1 0x0 PUSH1 0x64 DUP3 PUSH4 0xFFFFFFFF AND PUSH1 0x99 SLOAD DUP6 PUSH4 0xFFFFFFFF AND PUSH2 0x601 SWAP2 SWAP1 PUSH2 0xB96 JUMP JUMPDEST PUSH2 0x60B SWAP2 SWAP1 PUSH2 0xB96 JUMP JUMPDEST PUSH2 0x615 SWAP2 SWAP1 PUSH2 0xBB5 JUMP JUMPDEST SWAP1 POP PUSH1 0x98 DUP6 DUP6 PUSH1 0x40 MLOAD PUSH2 0x629 SWAP3 SWAP2 SWAP1 PUSH2 0xB35 JUMP JUMPDEST SWAP1 DUP2 MSTORE PUSH1 0x40 MLOAD SWAP1 DUP2 SWAP1 SUB PUSH1 0x20 ADD SWAP1 KECCAK256 SLOAD PUSH1 0x1 PUSH1 0x1 PUSH1 0xA0 SHL SUB AND PUSH4 0x23B872DD PUSH2 0x64E CALLER SWAP1 JUMP JUMPDEST PUSH1 0x40 MLOAD PUSH1 0x1 PUSH1 0x1 PUSH1 0xE0 SHL SUB NOT PUSH1 0xE0 DUP5 SWAP1 SHL AND DUP2 MSTORE PUSH1 0x1 PUSH1 0x1 PUSH1 0xA0 SHL SUB SWAP1 SWAP2 AND PUSH1 0x4 DUP3 ADD MSTORE ADDRESS PUSH1 0x24 DUP3 ADD MSTORE PUSH1 0x44 DUP2 ADD DUP5 SWAP1 MSTORE PUSH1 0x64 ADD PUSH1 0x20 PUSH1 0x40 MLOAD DUP1 DUP4 SUB DUP2 PUSH1 0x0 DUP8 DUP1 EXTCODESIZE ISZERO DUP1 ISZERO PUSH2 0x69C JUMPI PUSH1 0x0 DUP1 REVERT JUMPDEST POP GAS CALL ISZERO DUP1 ISZERO PUSH2 0x6B0 JUMPI RETURNDATASIZE PUSH1 0x0 DUP1 RETURNDATACOPY RETURNDATASIZE PUSH1 0x0 REVERT JUMPDEST POP POP POP POP PUSH1 0x40 MLOAD RETURNDATASIZE PUSH1 0x1F NOT PUSH1 0x1F DUP3 ADD AND DUP3 ADD DUP1 PUSH1 0x40 MSTORE POP DUP2 ADD SWAP1 PUSH2 0x6D4 SWAP2 SWAP1 PUSH2 0xB5E JUMP JUMPDEST PUSH2 0x711 JUMPI PUSH1 0x40 MLOAD PUSH3 0x461BCD PUSH1 0xE5 SHL DUP2 MSTORE PUSH1 0x20 PUSH1 0x4 DUP3 ADD MSTORE PUSH1 0xE PUSH1 0x24 DUP3 ADD MSTORE PUSH14 0x2A2920A729A322A92FA2A92927A9 PUSH1 0x91 SHL PUSH1 0x44 DUP3 ADD MSTORE PUSH1 0x64 ADD PUSH2 0x20A JUMP JUMPDEST CALLER PUSH1 0x0 SWAP1 DUP2 MSTORE PUSH1 0x97 PUSH1 0x20 MSTORE PUSH1 0x40 SWAP1 KECCAK256 SLOAD PUSH1 0xFF AND ISZERO PUSH2 0x7BD JUMPI CALLER PUSH1 0x0 SWAP1 DUP2 MSTORE PUSH1 0x97 PUSH1 0x20 MSTORE PUSH1 0x40 SWAP1 KECCAK256 DUP1 SLOAD DUP5 SWAP2 SWAP1 PUSH1 0x1 SWAP1 PUSH2 0x756 SWAP1 DUP5 SWAP1 PUSH2 0x100 SWAP1 DIV PUSH4 0xFFFFFFFF AND PUSH2 0xBD7 JUMP JUMPDEST SWAP3 POP PUSH2 0x100 EXP DUP2 SLOAD DUP2 PUSH4 0xFFFFFFFF MUL NOT AND SWAP1 DUP4 PUSH4 0xFFFFFFFF AND MUL OR SWAP1 SSTORE POP DUP1 PUSH1 0x97 PUSH1 0x0 PUSH2 0x780 CALLER SWAP1 JUMP JUMPDEST PUSH1 0x1 PUSH1 0x1 PUSH1 0xA0 SHL SUB AND PUSH1 0x1 PUSH1 0x1 PUSH1 0xA0 SHL SUB AND DUP2 MSTORE PUSH1 0x20 ADD SWAP1 DUP2 MSTORE PUSH1 0x20 ADD PUSH1 0x0 KECCAK256 PUSH1 0x1 ADD PUSH1 0x0 DUP3 DUP3 SLOAD PUSH2 0x7B2 SWAP2 SWAP1 PUSH2 0xBFF JUMP JUMPDEST SWAP1 SWAP2 SSTORE POP PUSH2 0x81D SWAP1 POP JUMP JUMPDEST PUSH1 0x40 DUP1 MLOAD PUSH1 0x60 DUP2 ADD DUP3 MSTORE PUSH1 0x1 DUP1 DUP3 MSTORE PUSH4 0xFFFFFFFF DUP7 DUP2 AND PUSH1 0x20 DUP1 DUP6 ADD SWAP2 DUP3 MSTORE DUP5 DUP7 ADD DUP8 DUP2 MSTORE CALLER PUSH1 0x0 SWAP1 DUP2 MSTORE PUSH1 0x97 SWAP1 SWAP3 MSTORE SWAP6 SWAP1 KECCAK256 SWAP4 MLOAD DUP5 SLOAD SWAP2 MLOAD PUSH5 0xFFFFFFFFFF NOT SWAP1 SWAP3 AND SWAP1 ISZERO ISZERO PUSH5 0xFFFFFFFF00 NOT AND OR PUSH2 0x100 SWAP2 SWAP1 SWAP3 AND MUL OR DUP3 SSTORE SWAP2 MLOAD SWAP2 ADD SSTORE JUMPDEST POP POP POP POP POP JUMP JUMPDEST PUSH1 0x65 DUP1 SLOAD PUSH1 0x1 PUSH1 0x1 PUSH1 0xA0 SHL SUB DUP4 DUP2 AND PUSH1 0x1 PUSH1 0x1 PUSH1 0xA0 SHL SUB NOT DUP4 AND DUP2 OR SWAP1 SWAP4 SSTORE PUSH1 0x40 MLOAD SWAP2 AND SWAP2 SWAP1 DUP3 SWAP1 PUSH32 0xC7C0C772ADD429241571AFB3805861FB3CFA2AF374534088B76CDB4325A87E9A SWAP1 PUSH1 0x0 SWAP1 LOG3 POP POP JUMP JUMPDEST PUSH1 0x0 DUP1 SLOAD PUSH2 0x100 SWAP1 DIV PUSH1 0xFF AND ISZERO PUSH2 0x8BD JUMPI DUP2 PUSH1 0xFF AND PUSH1 0x1 EQ DUP1 ISZERO PUSH2 0x899 JUMPI POP ADDRESS EXTCODESIZE ISZERO JUMPDEST PUSH2 0x8B5 JUMPI PUSH1 0x40 MLOAD PUSH3 0x461BCD PUSH1 0xE5 SHL DUP2 MSTORE PUSH1 0x4 ADD PUSH2 0x20A SWAP1 PUSH2 0xC17 JUMP JUMPDEST POP PUSH1 0x0 SWAP2 SWAP1 POP JUMP JUMPDEST PUSH1 0x0 SLOAD PUSH1 0xFF DUP1 DUP5 AND SWAP2 AND LT PUSH2 0x8E4 JUMPI PUSH1 0x40 MLOAD PUSH3 0x461BCD PUSH1 0xE5 SHL DUP2 MSTORE PUSH1 0x4 ADD PUSH2 0x20A SWAP1 PUSH2 0xC17 JUMP JUMPDEST POP PUSH1 0x0 DUP1 SLOAD PUSH1 0xFF NOT AND PUSH1 0xFF SWAP3 SWAP1 SWAP3 AND SWAP2 SWAP1 SWAP2 OR SWAP1 SSTORE PUSH1 0x1 SWAP1 JUMP JUMPDEST SWAP2 SWAP1 POP JUMP JUMPDEST PUSH1 0x0 SLOAD PUSH2 0x100 SWAP1 DIV PUSH1 0xFF AND PUSH2 0x92A JUMPI PUSH1 0x40 MLOAD PUSH3 0x461BCD PUSH1 0xE5 SHL DUP2 MSTORE PUSH1 0x4 ADD PUSH2 0x20A SWAP1 PUSH2 0xC65 JUMP JUMPDEST PUSH2 0x2A0 PUSH2 0x961 JUMP JUMPDEST PUSH1 0x0 SLOAD PUSH2 0x100 SWAP1 DIV PUSH1 0xFF AND PUSH2 0x959 JUMPI PUSH1 0x40 MLOAD PUSH3 0x461BCD PUSH1 0xE5 SHL DUP2 MSTORE PUSH1 0x4 ADD PUSH2 0x20A SWAP1 PUSH2 0xC65 JUMP JUMPDEST PUSH2 0x2A0 PUSH2 0x991 JUMP JUMPDEST PUSH1 0x0 SLOAD PUSH2 0x100 SWAP1 DIV PUSH1 0xFF AND PUSH2 0x988 JUMPI PUSH1 0x40 MLOAD PUSH3 0x461BCD PUSH1 0xE5 SHL DUP2 MSTORE PUSH1 0x4 ADD PUSH2 0x20A SWAP1 PUSH2 0xC65 JUMP JUMPDEST PUSH2 0x2A0 CALLER PUSH2 0x824 JUMP JUMPDEST PUSH1 0x0 SLOAD PUSH2 0x100 SWAP1 DIV PUSH1 0xFF AND PUSH2 0x9B8 JUMPI PUSH1 0x40 MLOAD PUSH3 0x461BCD PUSH1 0xE5 SHL DUP2 MSTORE PUSH1 0x4 ADD PUSH2 0x20A SWAP1 PUSH2 0xC65 JUMP JUMPDEST PUSH1 0x1 PUSH1 0x33 SSTORE JUMP JUMPDEST PUSH1 0x0 DUP1 DUP4 PUSH1 0x1F DUP5 ADD SLT PUSH2 0x9D1 JUMPI PUSH1 0x0 DUP1 REVERT JUMPDEST POP DUP2 CALLDATALOAD PUSH8 0xFFFFFFFFFFFFFFFF DUP2 GT ISZERO PUSH2 0x9E9 JUMPI PUSH1 0x0 DUP1 REVERT JUMPDEST PUSH1 0x20 DUP4 ADD SWAP2 POP DUP4 PUSH1 0x20 DUP3 DUP6 ADD ADD GT ISZERO PUSH2 0xA01 JUMPI PUSH1 0x0 DUP1 REVERT JUMPDEST SWAP3 POP SWAP3 SWAP1 POP JUMP JUMPDEST DUP1 CALLDATALOAD PUSH1 0x1 PUSH1 0x1 PUSH1 0xA0 SHL SUB DUP2 AND DUP2 EQ PUSH2 0x8FE JUMPI PUSH1 0x0 DUP1 REVERT JUMPDEST PUSH1 0x0 DUP1 PUSH1 0x0 PUSH1 0x40 DUP5 DUP7 SUB SLT ISZERO PUSH2 0xA34 JUMPI PUSH1 0x0 DUP1 REVERT JUMPDEST DUP4 CALLDATALOAD PUSH8 0xFFFFFFFFFFFFFFFF DUP2 GT ISZERO PUSH2 0xA4B JUMPI PUSH1 0x0 DUP1 REVERT JUMPDEST PUSH2 0xA57 DUP7 DUP3 DUP8 ADD PUSH2 0x9BF JUMP JUMPDEST SWAP1 SWAP5 POP SWAP3 POP PUSH2 0xA6A SWAP1 POP PUSH1 0x20 DUP6 ADD PUSH2 0xA08 JUMP JUMPDEST SWAP1 POP SWAP3 POP SWAP3 POP SWAP3 JUMP JUMPDEST PUSH1 0x0 DUP1 PUSH1 0x0 PUSH1 0x40 DUP5 DUP7 SUB SLT ISZERO PUSH2 0xA88 JUMPI PUSH1 0x0 DUP1 REVERT JUMPDEST DUP4 CALLDATALOAD PUSH8 0xFFFFFFFFFFFFFFFF DUP2 GT ISZERO PUSH2 0xA9F JUMPI PUSH1 0x0 DUP1 REVERT JUMPDEST PUSH2 0xAAB DUP7 DUP3 DUP8 ADD PUSH2 0x9BF JUMP JUMPDEST SWAP1 SWAP5 POP SWAP3 POP POP PUSH1 0x20 DUP5 ADD CALLDATALOAD PUSH4 0xFFFFFFFF DUP2 AND DUP2 EQ PUSH2 0xAC8 JUMPI PUSH1 0x0 DUP1 REVERT JUMPDEST DUP1 SWAP2 POP POP SWAP3 POP SWAP3 POP SWAP3 JUMP JUMPDEST PUSH1 0x0 PUSH1 0x20 DUP3 DUP5 SUB SLT ISZERO PUSH2 0xAE5 JUMPI PUSH1 0x0 DUP1 REVERT JUMPDEST PUSH2 0xAEE DUP3 PUSH2 0xA08 JUMP JUMPDEST SWAP4 SWAP3 POP POP POP JUMP JUMPDEST PUSH1 0x0 PUSH1 0x20 DUP3 DUP5 SUB SLT ISZERO PUSH2 0xB07 JUMPI PUSH1 0x0 DUP1 REVERT JUMPDEST POP CALLDATALOAD SWAP2 SWAP1 POP JUMP JUMPDEST PUSH1 0x20 DUP1 DUP3 MSTORE PUSH1 0xD SWAP1 DUP3 ADD MSTORE PUSH13 0x474F5645524E4F525F4F4E4C59 PUSH1 0x98 SHL PUSH1 0x40 DUP3 ADD MSTORE PUSH1 0x60 ADD SWAP1 JUMP JUMPDEST DUP2 DUP4 DUP3 CALLDATACOPY PUSH1 0x0 SWAP2 ADD SWAP1 DUP2 MSTORE SWAP2 SWAP1 POP JUMP JUMPDEST PUSH1 0x0 PUSH1 0x20 DUP3 DUP5 SUB SLT ISZERO PUSH2 0xB57 JUMPI PUSH1 0x0 DUP1 REVERT JUMPDEST POP MLOAD SWAP2 SWAP1 POP JUMP JUMPDEST PUSH1 0x0 PUSH1 0x20 DUP3 DUP5 SUB SLT ISZERO PUSH2 0xB70 JUMPI PUSH1 0x0 DUP1 REVERT JUMPDEST DUP2 MLOAD DUP1 ISZERO ISZERO DUP2 EQ PUSH2 0xAEE JUMPI PUSH1 0x0 DUP1 REVERT JUMPDEST PUSH4 0x4E487B71 PUSH1 0xE0 SHL PUSH1 0x0 MSTORE PUSH1 0x11 PUSH1 0x4 MSTORE PUSH1 0x24 PUSH1 0x0 REVERT JUMPDEST PUSH1 0x0 DUP2 PUSH1 0x0 NOT DIV DUP4 GT DUP3 ISZERO ISZERO AND ISZERO PUSH2 0xBB0 JUMPI PUSH2 0xBB0 PUSH2 0xB80 JUMP JUMPDEST POP MUL SWAP1 JUMP JUMPDEST PUSH1 0x0 DUP3 PUSH2 0xBD2 JUMPI PUSH4 0x4E487B71 PUSH1 0xE0 SHL PUSH1 0x0 MSTORE PUSH1 0x12 PUSH1 0x4 MSTORE PUSH1 0x24 PUSH1 0x0 REVERT JUMPDEST POP DIV SWAP1 JUMP JUMPDEST PUSH1 0x0 PUSH4 0xFFFFFFFF DUP1 DUP4 AND DUP2 DUP6 AND DUP1 DUP4 SUB DUP3 GT ISZERO PUSH2 0xBF6 JUMPI PUSH2 0xBF6 PUSH2 0xB80 JUMP JUMPDEST ADD SWAP5 SWAP4 POP POP POP POP JUMP JUMPDEST PUSH1 0x0 DUP3 NOT DUP3 GT ISZERO PUSH2 0xC12 JUMPI PUSH2 0xC12 PUSH2 0xB80 JUMP JUMPDEST POP ADD SWAP1 JUMP JUMPDEST PUSH1 0x20 DUP1 DUP3 MSTORE PUSH1 0x2E SWAP1 DUP3 ADD MSTORE PUSH32 0x496E697469616C697A61626C653A20636F6E747261637420697320616C726561 PUSH1 0x40 DUP3 ADD MSTORE PUSH14 0x191E481A5B9A5D1A585B1A5E9959 PUSH1 0x92 SHL PUSH1 0x60 DUP3 ADD MSTORE PUSH1 0x80 ADD SWAP1 JUMP JUMPDEST PUSH1 0x20 DUP1 DUP3 MSTORE PUSH1 0x2B SWAP1 DUP3 ADD MSTORE PUSH32 0x496E697469616C697A61626C653A20636F6E7472616374206973206E6F742069 PUSH1 0x40 DUP3 ADD MSTORE PUSH11 0x6E697469616C697A696E67 PUSH1 0xA8 SHL PUSH1 0x60 DUP3 ADD MSTORE PUSH1 0x80 ADD SWAP1 JUMP INVALID LOG2 PUSH5 0x6970667358 0x22 SLT KECCAK256 LT 0x2A SWAP8 0x5F 0x25 DUP14 PC LOG1 SWAP7 0xD5 PUSH26 0xFF7FCA8F2FA53F935FE1C287B52C9A35E1DE135A1564736F6C63 NUMBER STOP ADDMOD MULMOD STOP CALLER "
        },
        "methodIdentifiers": {
          "allowPayableToken(string,address)": "32394239",
          "deposit100(string,uint32)": "86844b4e",
          "deposit25(string,uint32)": "b83e811b",
          "deposit50(string,uint32)": "4d43b5c2",
          "getDepositAmount()": "7d96f693",
          "getDepositTotal()": "5eefdd2b",
          "getUnitPrice()": "012a33aa",
          "governor()": "0c340a24",
          "initialize(uint256)": "fe4b84df",
          "renounceGovernorship()": "81c0c263",
          "setUnitPrice(uint256)": "dc1b7328",
          "transferGovernorship(address)": "b6aa515b",
          "withdrawPayableToken(string,address)": "99573818"
        }
      },
      "storageLayout": {
        "storage": [
          {
            "astId": 322,
            "contract": "contracts/PrivateOffering.sol:PrivateOffering",
            "label": "_initialized",
            "offset": 0,
            "slot": "0",
            "type": "t_uint8"
          },
          {
            "astId": 325,
            "contract": "contracts/PrivateOffering.sol:PrivateOffering",
            "label": "_initializing",
            "offset": 1,
            "slot": "0",
            "type": "t_bool"
          },
          {
            "astId": 551,
            "contract": "contracts/PrivateOffering.sol:PrivateOffering",
            "label": "__gap",
            "offset": 0,
            "slot": "1",
            "type": "t_array(t_uint256)50_storage"
          },
          {
            "astId": 468,
            "contract": "contracts/PrivateOffering.sol:PrivateOffering",
            "label": "_status",
            "offset": 0,
            "slot": "51",
            "type": "t_uint256"
          },
          {
            "astId": 512,
            "contract": "contracts/PrivateOffering.sol:PrivateOffering",
            "label": "__gap",
            "offset": 0,
            "slot": "52",
            "type": "t_array(t_uint256)49_storage"
          },
          {
            "astId": 559,
            "contract": "contracts/PrivateOffering.sol:PrivateOffering",
            "label": "_governor",
            "offset": 0,
            "slot": "101",
            "type": "t_address"
          },
          {
            "astId": 671,
            "contract": "contracts/PrivateOffering.sol:PrivateOffering",
            "label": "__gap",
            "offset": 0,
            "slot": "102",
            "type": "t_array(t_uint256)49_storage"
          },
          {
            "astId": 690,
            "contract": "contracts/PrivateOffering.sol:PrivateOffering",
            "label": "_deposits",
            "offset": 0,
            "slot": "151",
            "type": "t_mapping(t_address,t_struct(DepositData)685_storage)"
          },
          {
            "astId": 695,
            "contract": "contracts/PrivateOffering.sol:PrivateOffering",
            "label": "_payableToken",
            "offset": 0,
            "slot": "152",
            "type": "t_mapping(t_string_memory_ptr,t_contract(IERC20)77)"
          },
          {
            "astId": 697,
            "contract": "contracts/PrivateOffering.sol:PrivateOffering",
            "label": "_unitPrice",
            "offset": 0,
            "slot": "153",
            "type": "t_uint256"
          }
        ],
        "types": {
          "t_address": {
            "encoding": "inplace",
            "label": "address",
            "numberOfBytes": "20"
          },
          "t_array(t_uint256)49_storage": {
            "base": "t_uint256",
            "encoding": "inplace",
            "label": "uint256[49]",
            "numberOfBytes": "1568"
          },
          "t_array(t_uint256)50_storage": {
            "base": "t_uint256",
            "encoding": "inplace",
            "label": "uint256[50]",
            "numberOfBytes": "1600"
          },
          "t_bool": {
            "encoding": "inplace",
            "label": "bool",
            "numberOfBytes": "1"
          },
          "t_contract(IERC20)77": {
            "encoding": "inplace",
            "label": "contract IERC20",
            "numberOfBytes": "20"
          },
          "t_mapping(t_address,t_struct(DepositData)685_storage)": {
            "encoding": "mapping",
            "key": "t_address",
            "label": "mapping(address => struct PrivateOffering.DepositData)",
            "numberOfBytes": "32",
            "value": "t_struct(DepositData)685_storage"
          },
          "t_mapping(t_string_memory_ptr,t_contract(IERC20)77)": {
            "encoding": "mapping",
            "key": "t_string_memory_ptr",
            "label": "mapping(string => contract IERC20)",
            "numberOfBytes": "32",
            "value": "t_contract(IERC20)77"
          },
          "t_string_memory_ptr": {
            "encoding": "bytes",
            "label": "string",
            "numberOfBytes": "32"
          },
          "t_struct(DepositData)685_storage": {
            "encoding": "inplace",
            "label": "struct PrivateOffering.DepositData",
            "members": [
              {
                "astId": 680,
                "contract": "contracts/PrivateOffering.sol:PrivateOffering",
                "label": "initialized",
                "offset": 0,
                "slot": "0",
                "type": "t_bool"
              },
              {
                "astId": 682,
                "contract": "contracts/PrivateOffering.sol:PrivateOffering",
                "label": "amount",
                "offset": 1,
                "slot": "0",
                "type": "t_uint32"
              },
              {
                "astId": 684,
                "contract": "contracts/PrivateOffering.sol:PrivateOffering",
                "label": "total",
                "offset": 0,
                "slot": "1",
                "type": "t_uint256"
              }
            ],
            "numberOfBytes": "64"
          },
          "t_uint256": {
            "encoding": "inplace",
            "label": "uint256",
            "numberOfBytes": "32"
          },
          "t_uint32": {
            "encoding": "inplace",
            "label": "uint32",
            "numberOfBytes": "4"
          },
          "t_uint8": {
            "encoding": "inplace",
            "label": "uint8",
            "numberOfBytes": "1"
          }
        }
      }
    }
  }
}