{
  "_format": "hh-sol-artifact-1",
  "contractName": "PrivateOffering",
  "sourceName": "contracts/PrivateOffering.sol",
  "abi": [
    {
      "anonymous": false,
      "inputs": [
        {
          "indexed": true,
          "internalType": "address",
          "name": "previousGovernor",
          "type": "address"
        },
        {
          "indexed": true,
          "internalType": "address",
          "name": "newGovernor",
          "type": "address"
        }
      ],
      "name": "GovernorshipTransferred",
      "type": "event"
    },
    {
      "anonymous": false,
      "inputs": [
        {
          "indexed": false,
          "internalType": "uint8",
          "name": "version",
          "type": "uint8"
        }
      ],
      "name": "Initialized",
      "type": "event"
    },
    {
      "inputs": [
        {
          "internalType": "string",
          "name": "name",
          "type": "string"
        },
        {
          "internalType": "address",
          "name": "token",
          "type": "address"
        }
      ],
      "name": "allowPayableToken",
      "outputs": [],
      "stateMutability": "nonpayable",
      "type": "function"
    },
    {
      "inputs": [
        {
          "internalType": "string",
          "name": "token",
          "type": "string"
        },
        {
          "internalType": "uint32",
          "name": "amount",
          "type": "uint32"
        }
      ],
      "name": "deposit100",
      "outputs": [],
      "stateMutability": "nonpayable",
      "type": "function"
    },
    {
      "inputs": [
        {
          "internalType": "string",
          "name": "token",
          "type": "string"
        },
        {
          "internalType": "uint32",
          "name": "amount",
          "type": "uint32"
        }
      ],
      "name": "deposit25",
      "outputs": [],
      "stateMutability": "nonpayable",
      "type": "function"
    },
    {
      "inputs": [
        {
          "internalType": "string",
          "name": "token",
          "type": "string"
        },
        {
          "internalType": "uint32",
          "name": "amount",
          "type": "uint32"
        }
      ],
      "name": "deposit50",
      "outputs": [],
      "stateMutability": "nonpayable",
      "type": "function"
    },
    {
      "inputs": [
        {
          "internalType": "string",
          "name": "symbol",
          "type": "string"
        },
        {
          "internalType": "uint256",
          "name": "total",
          "type": "uint256"
        }
      ],
      "name": "fullPayment",
      "outputs": [],
      "stateMutability": "nonpayable",
      "type": "function"
    },
    {
      "inputs": [],
      "name": "getDepositAmount",
      "outputs": [
        {
          "internalType": "uint256",
          "name": "",
          "type": "uint256"
        }
      ],
      "stateMutability": "view",
      "type": "function"
    },
    {
      "inputs": [],
      "name": "getDepositTotal",
      "outputs": [
        {
          "internalType": "uint256",
          "name": "",
          "type": "uint256"
        }
      ],
      "stateMutability": "view",
      "type": "function"
    },
    {
      "inputs": [],
      "name": "getFullPaymentTotal",
      "outputs": [
        {
          "internalType": "uint256",
          "name": "",
          "type": "uint256"
        }
      ],
      "stateMutability": "view",
      "type": "function"
    },
    {
      "inputs": [],
      "name": "getUnitPrice",
      "outputs": [
        {
          "internalType": "uint256",
          "name": "",
          "type": "uint256"
        }
      ],
      "stateMutability": "view",
      "type": "function"
    },
    {
      "inputs": [
        {
          "internalType": "address",
          "name": "from",
          "type": "address"
        }
      ],
      "name": "getUserDepositAmount",
      "outputs": [
        {
          "internalType": "uint256",
          "name": "",
          "type": "uint256"
        }
      ],
      "stateMutability": "view",
      "type": "function"
    },
    {
      "inputs": [
        {
          "internalType": "address",
          "name": "from",
          "type": "address"
        }
      ],
      "name": "getUserDepositTotal",
      "outputs": [
        {
          "internalType": "uint256",
          "name": "",
          "type": "uint256"
        }
      ],
      "stateMutability": "view",
      "type": "function"
    },
    {
      "inputs": [
        {
          "internalType": "address",
          "name": "from",
          "type": "address"
        }
      ],
      "name": "getUserFullPaymentTotal",
      "outputs": [
        {
          "internalType": "uint256",
          "name": "",
          "type": "uint256"
        }
      ],
      "stateMutability": "view",
      "type": "function"
    },
    {
      "inputs": [],
      "name": "governor",
      "outputs": [
        {
          "internalType": "address",
          "name": "",
          "type": "address"
        }
      ],
      "stateMutability": "view",
      "type": "function"
    },
    {
      "inputs": [
        {
          "internalType": "uint256",
          "name": "price",
          "type": "uint256"
        }
      ],
      "name": "initialize",
      "outputs": [],
      "stateMutability": "nonpayable",
      "type": "function"
    },
    {
      "inputs": [],
      "name": "pause",
      "outputs": [],
      "stateMutability": "nonpayable",
      "type": "function"
    },
    {
      "inputs": [],
      "name": "renounceGovernorship",
      "outputs": [],
      "stateMutability": "nonpayable",
      "type": "function"
    },
    {
      "inputs": [],
      "name": "resume",
      "outputs": [],
      "stateMutability": "nonpayable",
      "type": "function"
    },
    {
      "inputs": [
        {
          "internalType": "uint256",
          "name": "price",
          "type": "uint256"
        }
      ],
      "name": "setUnitPrice",
      "outputs": [],
      "stateMutability": "nonpayable",
      "type": "function"
    },
    {
      "inputs": [
        {
          "internalType": "address",
          "name": "newGovernor",
          "type": "address"
        }
      ],
      "name": "transferGovernorship",
      "outputs": [],
      "stateMutability": "nonpayable",
      "type": "function"
    },
    {
      "inputs": [
        {
          "internalType": "string",
          "name": "name",
          "type": "string"
        },
        {
          "internalType": "address",
          "name": "to",
          "type": "address"
        }
      ],
      "name": "withdrawPayableToken",
      "outputs": [],
      "stateMutability": "nonpayable",
      "type": "function"
    }
  ],
  "bytecode": "0x608060405234801561001057600080fd5b506111be806100206000396000f3fe608060405234801561001057600080fd5b506004361061012c5760003560e01c806381c0c263116100ad578063b83e811b11610071578063b83e811b1461024d578063d835760714610260578063dc1b732814610273578063f33f5c9f14610286578063fe4b84df1461029e57600080fd5b806381c0c263146102045780638456cb591461020c57806386844b4e146102145780639957381814610227578063b6aa515b1461023a57600080fd5b80632f7d4a5b116100f45780632f7d4a5b1461019357806332394239146101a65780634d43b5c2146101b95780635eefdd2b146101cc5780637d96f693146101e457600080fd5b8063012a33aa14610131578063046f7da2146101485780630c340a24146101525780630c9211551461016d5780630cec2a7614610180575b600080fd5b6099545b6040519081526020015b60405180910390f35b6101506102b1565b005b6065546040516001600160a01b03909116815260200161013f565b61013561017b366004610e42565b6102f0565b61013561018e366004610e42565b610340565b6101506101a1366004610ead565b610394565b6101506101b4366004610ef9565b61054c565b6101506101c7366004610f4d565b6105bd565b33600090815260976020526040902060010154610135565b33600090815260976020526040902054610100900463ffffffff16610135565b6101506105f2565b610150610628565b610150610222366004610f4d565b610661565b610150610235366004610ef9565b610691565b610150610248366004610e42565b610843565b61015061025b366004610f4d565b6108be565b61013561026e366004610e42565b6108ee565b610150610281366004610fad565b61093a565b33600090815260976020526040902060020154610135565b6101506102ac366004610fad565b610969565b6065546001600160a01b031633146102e45760405162461bcd60e51b81526004016102db90610fc6565b60405180910390fd5b609a805460ff19169055565b6065546000906001600160a01b0316331461031d5760405162461bcd60e51b81526004016102db90610fc6565b506001600160a01b0381166000908152609760205260409020600101545b919050565b6065546000906001600160a01b0316331461036d5760405162461bcd60e51b81526004016102db90610fc6565b506001600160a01b0316600090815260976020526040902054610100900463ffffffff1690565b3360009081526097602052604090205460ff166103e55760405162461bcd60e51b815260206004820152600f60248201526e1393d517d6515517d1115413d4d255608a1b60448201526064016102db565b600081116104265760405162461bcd60e51b815260206004820152600e60248201526d1253959053125117d05353d5539560921b60448201526064016102db565b60988383604051610438929190610fed565b908152604051908190036020019020546001600160a01b03166323b872dd61045d3390565b6040516001600160e01b031960e084901b1681526001600160a01b03909116600482015230602482015260448101849052606401602060405180830381600087803b1580156104ab57600080fd5b505af11580156104bf573d6000803e3d6000fd5b505050506040513d601f19601f820116820180604052508101906104e39190610ffd565b6105205760405162461bcd60e51b815260206004820152600e60248201526d2a2920a729a322a92fa2a92927a960911b60448201526064016102db565b3360009081526097602052604081206002018054839290610542908490611035565b9091555050505050565b6065546001600160a01b031633146105765760405162461bcd60e51b81526004016102db90610fc6565b8060988484604051610589929190610fed565b90815260405190819003602001902080546001600160a01b03929092166001600160a01b0319909216919091179055505050565b609a5460ff16156105e05760405162461bcd60e51b81526004016102db9061104d565b6105ed83838360326109f6565b505050565b6065546001600160a01b0316331461061c5760405162461bcd60e51b81526004016102db90610fc6565b6106266000610c95565b565b6065546001600160a01b031633146106525760405162461bcd60e51b81526004016102db90610fc6565b609a805460ff19166001179055565b609a5460ff16156106845760405162461bcd60e51b81526004016102db9061104d565b6105ed83838360646109f6565b600260335414156106e45760405162461bcd60e51b815260206004820152601f60248201527f5265656e7472616e637947756172643a207265656e7472616e742063616c6c0060448201526064016102db565b60026033556065546001600160a01b031633146107135760405162461bcd60e51b81526004016102db90610fc6565b600060988484604051610727929190610fed565b908152604051908190036020018120546370a0823160e01b82523060048301526001600160a01b0316915060009082906370a082319060240160206040518083038186803b15801561077857600080fd5b505afa15801561078c573d6000803e3d6000fd5b505050506040513d601f19601f820116820180604052508101906107b0919061106d565b60405163a9059cbb60e01b81526001600160a01b038581166004830152602482018390529192509083169063a9059cbb90604401602060405180830381600087803b1580156107fe57600080fd5b505af1158015610812573d6000803e3d6000fd5b505050506040513d601f19601f820116820180604052508101906108369190610ffd565b5050600160335550505050565b6065546001600160a01b0316331461086d5760405162461bcd60e51b81526004016102db90610fc6565b6001600160a01b0381166108b25760405162461bcd60e51b815260206004820152600c60248201526b5a45524f5f4144445245535360a01b60448201526064016102db565b6108bb81610c95565b50565b609a5460ff16156108e15760405162461bcd60e51b81526004016102db9061104d565b6105ed83838360196109f6565b6065546000906001600160a01b0316331461091b5760405162461bcd60e51b81526004016102db90610fc6565b506001600160a01b031660009081526097602052604090206002015490565b6065546001600160a01b031633146109645760405162461bcd60e51b81526004016102db90610fc6565b609955565b60006109756001610ce7565b9050801561098d576000805461ff0019166101001790555b610995610d6f565b61099d610d9e565b6099829055609a805460ff1916905580156109f2576000805461ff0019169055604051600181527f7f26b83ff96e1f2b6a682f133852f6798a09c465da95921460cefb38474024989060200160405180910390a15b5050565b60008263ffffffff1611610a3d5760405162461bcd60e51b815260206004820152600e60248201526d1253959053125117d05353d5539560921b60448201526064016102db565b600060648263ffffffff166099548563ffffffff16610a5c9190611086565b610a669190611086565b610a7091906110a5565b905060988585604051610a84929190610fed565b908152604051908190036020019020546001600160a01b03166323b872dd610aa93390565b6040516001600160e01b031960e084901b1681526001600160a01b03909116600482015230602482015260448101849052606401602060405180830381600087803b158015610af757600080fd5b505af1158015610b0b573d6000803e3d6000fd5b505050506040513d601f19601f82011682018060405250810190610b2f9190610ffd565b610b6c5760405162461bcd60e51b815260206004820152600e60248201526d2a2920a729a322a92fa2a92927a960911b60448201526064016102db565b3360009081526097602052604090205460ff1615610c18573360009081526097602052604090208054849190600190610bb1908490610100900463ffffffff166110c7565b92506101000a81548163ffffffff021916908363ffffffff1602179055508060976000610bdb3390565b6001600160a01b03166001600160a01b031681526020019081526020016000206001016000828254610c0d9190611035565b90915550610c8e9050565b60408051608081018252600180825263ffffffff868116602080850191825284860187815260006060870181815233825260979093529690962094518554925164ffffffffff1990931690151564ffffffff00191617610100929093169190910291909117835592519082015590516002909101555b5050505050565b606580546001600160a01b038381166001600160a01b0319831681179093556040519116919082907fc7c0c772add429241571afb3805861fb3cfa2af374534088b76cdb4325a87e9a90600090a35050565b60008054610100900460ff1615610d2e578160ff166001148015610d0a5750303b155b610d265760405162461bcd60e51b81526004016102db906110ef565b506000919050565b60005460ff808416911610610d555760405162461bcd60e51b81526004016102db906110ef565b506000805460ff191660ff92909216919091179055600190565b600054610100900460ff16610d965760405162461bcd60e51b81526004016102db9061113d565b610626610dcd565b600054610100900460ff16610dc55760405162461bcd60e51b81526004016102db9061113d565b610626610dfd565b600054610100900460ff16610df45760405162461bcd60e51b81526004016102db9061113d565b61062633610c95565b600054610100900460ff16610e245760405162461bcd60e51b81526004016102db9061113d565b6001603355565b80356001600160a01b038116811461033b57600080fd5b600060208284031215610e5457600080fd5b610e5d82610e2b565b9392505050565b60008083601f840112610e7657600080fd5b50813567ffffffffffffffff811115610e8e57600080fd5b602083019150836020828501011115610ea657600080fd5b9250929050565b600080600060408486031215610ec257600080fd5b833567ffffffffffffffff811115610ed957600080fd5b610ee586828701610e64565b909790965060209590950135949350505050565b600080600060408486031215610f0e57600080fd5b833567ffffffffffffffff811115610f2557600080fd5b610f3186828701610e64565b9094509250610f44905060208501610e2b565b90509250925092565b600080600060408486031215610f6257600080fd5b833567ffffffffffffffff811115610f7957600080fd5b610f8586828701610e64565b909450925050602084013563ffffffff81168114610fa257600080fd5b809150509250925092565b600060208284031215610fbf57600080fd5b5035919050565b6020808252600d908201526c474f5645524e4f525f4f4e4c5960981b604082015260600190565b8183823760009101908152919050565b60006020828403121561100f57600080fd5b81518015158114610e5d57600080fd5b634e487b7160e01b600052601160045260246000fd5b600082198211156110485761104861101f565b500190565b60208082526006908201526514105554d15160d21b604082015260600190565b60006020828403121561107f57600080fd5b5051919050565b60008160001904831182151516156110a0576110a061101f565b500290565b6000826110c257634e487b7160e01b600052601260045260246000fd5b500490565b600063ffffffff8083168185168083038211156110e6576110e661101f565b01949350505050565b6020808252602e908201527f496e697469616c697a61626c653a20636f6e747261637420697320616c72656160408201526d191e481a5b9a5d1a585b1a5e995960921b606082015260800190565b6020808252602b908201527f496e697469616c697a61626c653a20636f6e7472616374206973206e6f74206960408201526a6e697469616c697a696e6760a81b60608201526080019056fea26469706673582212203d1cc7240032eb1723b2ca436995b9005ae63af2f43340cc16cda7dc3d736c5764736f6c63430008090033",
  "linkReferences": {},
  "deployedLinkReferences": {}
}