{
  "_format": "hh-sol-artifact-1",
  "contractName": "PrivateOffering",
  "sourceName": "contracts/PrivateOffering.sol",
  "abi": [
    {
      "anonymous": false,
      "inputs": [
        {
          "indexed": true,
          "internalType": "address",
          "name": "previousGovernor",
          "type": "address"
        },
        {
          "indexed": true,
          "internalType": "address",
          "name": "newGovernor",
          "type": "address"
        }
      ],
      "name": "GovernorshipTransferred",
      "type": "event"
    },
    {
      "anonymous": false,
      "inputs": [
        {
          "indexed": false,
          "internalType": "uint8",
          "name": "version",
          "type": "uint8"
        }
      ],
      "name": "Initialized",
      "type": "event"
    },
    {
      "inputs": [
        {
          "internalType": "string",
          "name": "name",
          "type": "string"
        },
        {
          "internalType": "address",
          "name": "token",
          "type": "address"
        }
      ],
      "name": "allowPayableToken",
      "outputs": [],
      "stateMutability": "nonpayable",
      "type": "function"
    },
    {
      "inputs": [
        {
          "internalType": "string",
          "name": "token",
          "type": "string"
        },
        {
          "internalType": "uint32",
          "name": "amount",
          "type": "uint32"
        }
      ],
      "name": "deposit100",
      "outputs": [],
      "stateMutability": "nonpayable",
      "type": "function"
    },
    {
      "inputs": [
        {
          "internalType": "string",
          "name": "token",
          "type": "string"
        },
        {
          "internalType": "uint32",
          "name": "amount",
          "type": "uint32"
        }
      ],
      "name": "deposit25",
      "outputs": [],
      "stateMutability": "nonpayable",
      "type": "function"
    },
    {
      "inputs": [
        {
          "internalType": "string",
          "name": "token",
          "type": "string"
        },
        {
          "internalType": "uint32",
          "name": "amount",
          "type": "uint32"
        }
      ],
      "name": "deposit50",
      "outputs": [],
      "stateMutability": "nonpayable",
      "type": "function"
    },
    {
      "inputs": [],
      "name": "getDepositAmount",
      "outputs": [
        {
          "internalType": "uint256",
          "name": "",
          "type": "uint256"
        }
      ],
      "stateMutability": "view",
      "type": "function"
    },
    {
      "inputs": [],
      "name": "getDepositTotal",
      "outputs": [
        {
          "internalType": "uint256",
          "name": "",
          "type": "uint256"
        }
      ],
      "stateMutability": "view",
      "type": "function"
    },
    {
      "inputs": [],
      "name": "getUnitPrice",
      "outputs": [
        {
          "internalType": "uint256",
          "name": "",
          "type": "uint256"
        }
      ],
      "stateMutability": "view",
      "type": "function"
    },
    {
      "inputs": [],
      "name": "governor",
      "outputs": [
        {
          "internalType": "address",
          "name": "",
          "type": "address"
        }
      ],
      "stateMutability": "view",
      "type": "function"
    },
    {
      "inputs": [
        {
          "internalType": "uint256",
          "name": "price",
          "type": "uint256"
        }
      ],
      "name": "initialize",
      "outputs": [],
      "stateMutability": "nonpayable",
      "type": "function"
    },
    {
      "inputs": [],
      "name": "renounceGovernorship",
      "outputs": [],
      "stateMutability": "nonpayable",
      "type": "function"
    },
    {
      "inputs": [
        {
          "internalType": "uint256",
          "name": "price",
          "type": "uint256"
        }
      ],
      "name": "setUnitPrice",
      "outputs": [],
      "stateMutability": "nonpayable",
      "type": "function"
    },
    {
      "inputs": [
        {
          "internalType": "address",
          "name": "newGovernor",
          "type": "address"
        }
      ],
      "name": "transferGovernorship",
      "outputs": [],
      "stateMutability": "nonpayable",
      "type": "function"
    },
    {
      "inputs": [
        {
          "internalType": "string",
          "name": "name",
          "type": "string"
        },
        {
          "internalType": "address",
          "name": "to",
          "type": "address"
        }
      ],
      "name": "withdrawPayableToken",
      "outputs": [],
      "stateMutability": "nonpayable",
      "type": "function"
    }
  ],
  "bytecode": "0x608060405234801561001057600080fd5b50610cb4806100206000396000f3fe608060405234801561001057600080fd5b50600436106100cf5760003560e01c806381c0c2631161008c578063b6aa515b11610066578063b6aa515b14610194578063b83e811b146101a7578063dc1b7328146101ba578063fe4b84df146101cd57600080fd5b806381c0c2631461016657806386844b4e1461016e578063995738181461018157600080fd5b8063012a33aa146100d45780630c340a24146100eb57806332394239146101065780634d43b5c21461011b5780635eefdd2b1461012e5780637d96f69314610146575b600080fd5b6099545b6040519081526020015b60405180910390f35b6065546040516001600160a01b0390911681526020016100e2565b6101196101143660046109ed565b6101e0565b005b610119610129366004610a41565b61025a565b336000908152609760205260409020600101546100d8565b33600090815260976020526040902054610100900463ffffffff166100d8565b61011961026c565b61011961017c366004610a41565b6102a2565b61011961018f3660046109ed565b6102af565b6101196101a2366004610aa1565b610461565b6101196101b5366004610a41565b6104dc565b6101196101c8366004610ac3565b6104e9565b6101196101db366004610ac3565b610518565b6065546001600160a01b031633146102135760405162461bcd60e51b815260040161020a90610adc565b60405180910390fd5b8060988484604051610226929190610b03565b90815260405190819003602001902080546001600160a01b03929092166001600160a01b0319909216919091179055505050565b610267838383603261059b565b505050565b6065546001600160a01b031633146102965760405162461bcd60e51b815260040161020a90610adc565b6102a060006107f2565b565b610267838383606461059b565b600260335414156103025760405162461bcd60e51b815260206004820152601f60248201527f5265656e7472616e637947756172643a207265656e7472616e742063616c6c00604482015260640161020a565b60026033556065546001600160a01b031633146103315760405162461bcd60e51b815260040161020a90610adc565b600060988484604051610345929190610b03565b908152604051908190036020018120546370a0823160e01b82523060048301526001600160a01b0316915060009082906370a082319060240160206040518083038186803b15801561039657600080fd5b505afa1580156103aa573d6000803e3d6000fd5b505050506040513d601f19601f820116820180604052508101906103ce9190610b13565b60405163a9059cbb60e01b81526001600160a01b038581166004830152602482018390529192509083169063a9059cbb90604401602060405180830381600087803b15801561041c57600080fd5b505af1158015610430573d6000803e3d6000fd5b505050506040513d601f19601f820116820180604052508101906104549190610b2c565b5050600160335550505050565b6065546001600160a01b0316331461048b5760405162461bcd60e51b815260040161020a90610adc565b6001600160a01b0381166104d05760405162461bcd60e51b815260206004820152600c60248201526b5a45524f5f4144445245535360a01b604482015260640161020a565b6104d9816107f2565b50565b610267838383601961059b565b6065546001600160a01b031633146105135760405162461bcd60e51b815260040161020a90610adc565b609955565b60006105246001610844565b9050801561053c576000805461ff0019166101001790555b6105446108d1565b61054c610900565b60998290558015610597576000805461ff0019169055604051600181527f7f26b83ff96e1f2b6a682f133852f6798a09c465da95921460cefb38474024989060200160405180910390a15b5050565b60008263ffffffff16116105e25760405162461bcd60e51b815260206004820152600e60248201526d1253959053125117d05353d5539560921b604482015260640161020a565b600060648263ffffffff166099548563ffffffff166106019190610b64565b61060b9190610b64565b6106159190610b83565b905060988585604051610629929190610b03565b908152604051908190036020019020546001600160a01b03166323b872dd61064e3390565b6040516001600160e01b031960e084901b1681526001600160a01b03909116600482015230602482015260448101849052606401602060405180830381600087803b15801561069c57600080fd5b505af11580156106b0573d6000803e3d6000fd5b505050506040513d601f19601f820116820180604052508101906106d49190610b2c565b6107115760405162461bcd60e51b815260206004820152600e60248201526d2a2920a729a322a92fa2a92927a960911b604482015260640161020a565b3360009081526097602052604090205460ff16156107bd573360009081526097602052604090208054849190600190610756908490610100900463ffffffff16610ba5565b92506101000a81548163ffffffff021916908363ffffffff16021790555080609760006107803390565b6001600160a01b03166001600160a01b0316815260200190815260200160002060010160008282546107b29190610bcd565b909155506107eb9050565b336000908152609760205260409020805464ffffffff00191661010063ffffffff8616021781556001018190555b5050505050565b606580546001600160a01b038381166001600160a01b0319831681179093556040519116919082907fc7c0c772add429241571afb3805861fb3cfa2af374534088b76cdb4325a87e9a90600090a35050565b60008054610100900460ff161561088b578160ff1660011480156108675750303b155b6108835760405162461bcd60e51b815260040161020a90610be5565b506000919050565b60005460ff8084169116106108b25760405162461bcd60e51b815260040161020a90610be5565b506000805460ff191660ff92909216919091179055600190565b919050565b600054610100900460ff166108f85760405162461bcd60e51b815260040161020a90610c33565b6102a061092f565b600054610100900460ff166109275760405162461bcd60e51b815260040161020a90610c33565b6102a061095f565b600054610100900460ff166109565760405162461bcd60e51b815260040161020a90610c33565b6102a0336107f2565b600054610100900460ff166109865760405162461bcd60e51b815260040161020a90610c33565b6001603355565b60008083601f84011261099f57600080fd5b50813567ffffffffffffffff8111156109b757600080fd5b6020830191508360208285010111156109cf57600080fd5b9250929050565b80356001600160a01b03811681146108cc57600080fd5b600080600060408486031215610a0257600080fd5b833567ffffffffffffffff811115610a1957600080fd5b610a258682870161098d565b9094509250610a389050602085016109d6565b90509250925092565b600080600060408486031215610a5657600080fd5b833567ffffffffffffffff811115610a6d57600080fd5b610a798682870161098d565b909450925050602084013563ffffffff81168114610a9657600080fd5b809150509250925092565b600060208284031215610ab357600080fd5b610abc826109d6565b9392505050565b600060208284031215610ad557600080fd5b5035919050565b6020808252600d908201526c474f5645524e4f525f4f4e4c5960981b604082015260600190565b8183823760009101908152919050565b600060208284031215610b2557600080fd5b5051919050565b600060208284031215610b3e57600080fd5b81518015158114610abc57600080fd5b634e487b7160e01b600052601160045260246000fd5b6000816000190483118215151615610b7e57610b7e610b4e565b500290565b600082610ba057634e487b7160e01b600052601260045260246000fd5b500490565b600063ffffffff808316818516808303821115610bc457610bc4610b4e565b01949350505050565b60008219821115610be057610be0610b4e565b500190565b6020808252602e908201527f496e697469616c697a61626c653a20636f6e747261637420697320616c72656160408201526d191e481a5b9a5d1a585b1a5e995960921b606082015260800190565b6020808252602b908201527f496e697469616c697a61626c653a20636f6e7472616374206973206e6f74206960408201526a6e697469616c697a696e6760a81b60608201526080019056fea2646970667358221220eb0196ec8f8ba0c118387a8eb48002bc9a0521a2a6e7e9210f3cd53c74c35bc864736f6c63430008090033",
  "linkReferences": {},
  "deployedLinkReferences": {}
}