{
  "_format": "hh-sol-artifact-1",
  "contractName": "PrivateOffering",
  "sourceName": "contracts/PrivateOffering.sol",
  "abi": [
    {
      "anonymous": false,
      "inputs": [
        {
          "indexed": true,
          "internalType": "address",
          "name": "previousGovernor",
          "type": "address"
        },
        {
          "indexed": true,
          "internalType": "address",
          "name": "newGovernor",
          "type": "address"
        }
      ],
      "name": "GovernorshipTransferred",
      "type": "event"
    },
    {
      "anonymous": false,
      "inputs": [
        {
          "indexed": false,
          "internalType": "uint8",
          "name": "version",
          "type": "uint8"
        }
      ],
      "name": "Initialized",
      "type": "event"
    },
    {
      "inputs": [
        {
          "internalType": "string",
          "name": "name",
          "type": "string"
        },
        {
          "internalType": "address",
          "name": "token",
          "type": "address"
        }
      ],
      "name": "allowPayableToken",
      "outputs": [],
      "stateMutability": "nonpayable",
      "type": "function"
    },
    {
      "inputs": [
        {
          "internalType": "string",
          "name": "token",
          "type": "string"
        },
        {
          "internalType": "uint32",
          "name": "amount",
          "type": "uint32"
        }
      ],
      "name": "deposit100",
      "outputs": [],
      "stateMutability": "nonpayable",
      "type": "function"
    },
    {
      "inputs": [
        {
          "internalType": "string",
          "name": "token",
          "type": "string"
        },
        {
          "internalType": "uint32",
          "name": "amount",
          "type": "uint32"
        }
      ],
      "name": "deposit25",
      "outputs": [],
      "stateMutability": "nonpayable",
      "type": "function"
    },
    {
      "inputs": [
        {
          "internalType": "string",
          "name": "token",
          "type": "string"
        },
        {
          "internalType": "uint32",
          "name": "amount",
          "type": "uint32"
        }
      ],
      "name": "deposit50",
      "outputs": [],
      "stateMutability": "nonpayable",
      "type": "function"
    },
    {
      "inputs": [],
      "name": "getDepositAmount",
      "outputs": [
        {
          "internalType": "uint256",
          "name": "",
          "type": "uint256"
        }
      ],
      "stateMutability": "view",
      "type": "function"
    },
    {
      "inputs": [],
      "name": "getDepositTotal",
      "outputs": [
        {
          "internalType": "uint256",
          "name": "",
          "type": "uint256"
        }
      ],
      "stateMutability": "view",
      "type": "function"
    },
    {
      "inputs": [],
      "name": "getUnitPrice",
      "outputs": [
        {
          "internalType": "uint256",
          "name": "",
          "type": "uint256"
        }
      ],
      "stateMutability": "view",
      "type": "function"
    },
    {
      "inputs": [],
      "name": "governor",
      "outputs": [
        {
          "internalType": "address",
          "name": "",
          "type": "address"
        }
      ],
      "stateMutability": "view",
      "type": "function"
    },
    {
      "inputs": [
        {
          "internalType": "uint256",
          "name": "price",
          "type": "uint256"
        }
      ],
      "name": "initialize",
      "outputs": [],
      "stateMutability": "nonpayable",
      "type": "function"
    },
    {
      "inputs": [],
      "name": "pause",
      "outputs": [],
      "stateMutability": "nonpayable",
      "type": "function"
    },
    {
      "inputs": [],
      "name": "renounceGovernorship",
      "outputs": [],
      "stateMutability": "nonpayable",
      "type": "function"
    },
    {
      "inputs": [],
      "name": "resume",
      "outputs": [],
      "stateMutability": "nonpayable",
      "type": "function"
    },
    {
      "inputs": [
        {
          "internalType": "uint256",
          "name": "price",
          "type": "uint256"
        }
      ],
      "name": "setUnitPrice",
      "outputs": [],
      "stateMutability": "nonpayable",
      "type": "function"
    },
    {
      "inputs": [
        {
          "internalType": "address",
          "name": "newGovernor",
          "type": "address"
        }
      ],
      "name": "transferGovernorship",
      "outputs": [],
      "stateMutability": "nonpayable",
      "type": "function"
    },
    {
      "inputs": [
        {
          "internalType": "string",
          "name": "name",
          "type": "string"
        },
        {
          "internalType": "address",
          "name": "to",
          "type": "address"
        }
      ],
      "name": "withdrawPayableToken",
      "outputs": [],
      "stateMutability": "nonpayable",
      "type": "function"
    }
  ],
  "bytecode": "0x608060405234801561001057600080fd5b50610e1e806100206000396000f3fe608060405234801561001057600080fd5b50600436106100f55760003560e01c806381c0c26311610097578063b6aa515b11610066578063b6aa515b146101ca578063b83e811b146101dd578063dc1b7328146101f0578063fe4b84df1461020357600080fd5b806381c0c263146101945780638456cb591461019c57806386844b4e146101a457806399573818146101b757600080fd5b806332394239116100d357806332394239146101365780634d43b5c2146101495780635eefdd2b1461015c5780637d96f6931461017457600080fd5b8063012a33aa146100fa578063046f7da2146101115780630c340a241461011b575b600080fd5b6099545b6040519081526020015b60405180910390f35b610119610216565b005b6065546040516001600160a01b039091168152602001610108565b610119610144366004610b37565b610255565b610119610157366004610b8b565b6102c6565b336000908152609760205260409020600101546100fe565b33600090815260976020526040902054610100900463ffffffff166100fe565b6101196102fb565b610119610331565b6101196101b2366004610b8b565b61036a565b6101196101c5366004610b37565b61039a565b6101196101d8366004610beb565b61054c565b6101196101eb366004610b8b565b6105c7565b6101196101fe366004610c0d565b6105f7565b610119610211366004610c0d565b610626565b6065546001600160a01b031633146102495760405162461bcd60e51b815260040161024090610c26565b60405180910390fd5b609a805460ff19169055565b6065546001600160a01b0316331461027f5760405162461bcd60e51b815260040161024090610c26565b8060988484604051610292929190610c4d565b90815260405190819003602001902080546001600160a01b03929092166001600160a01b0319909216919091179055505050565b609a5460ff16156102e95760405162461bcd60e51b815260040161024090610c5d565b6102f683838360326106b3565b505050565b6065546001600160a01b031633146103255760405162461bcd60e51b815260040161024090610c26565b61032f600061093c565b565b6065546001600160a01b0316331461035b5760405162461bcd60e51b815260040161024090610c26565b609a805460ff19166001179055565b609a5460ff161561038d5760405162461bcd60e51b815260040161024090610c5d565b6102f683838360646106b3565b600260335414156103ed5760405162461bcd60e51b815260206004820152601f60248201527f5265656e7472616e637947756172643a207265656e7472616e742063616c6c006044820152606401610240565b60026033556065546001600160a01b0316331461041c5760405162461bcd60e51b815260040161024090610c26565b600060988484604051610430929190610c4d565b908152604051908190036020018120546370a0823160e01b82523060048301526001600160a01b0316915060009082906370a082319060240160206040518083038186803b15801561048157600080fd5b505afa158015610495573d6000803e3d6000fd5b505050506040513d601f19601f820116820180604052508101906104b99190610c7d565b60405163a9059cbb60e01b81526001600160a01b038581166004830152602482018390529192509083169063a9059cbb90604401602060405180830381600087803b15801561050757600080fd5b505af115801561051b573d6000803e3d6000fd5b505050506040513d601f19601f8201168201806040525081019061053f9190610c96565b5050600160335550505050565b6065546001600160a01b031633146105765760405162461bcd60e51b815260040161024090610c26565b6001600160a01b0381166105bb5760405162461bcd60e51b815260206004820152600c60248201526b5a45524f5f4144445245535360a01b6044820152606401610240565b6105c48161093c565b50565b609a5460ff16156105ea5760405162461bcd60e51b815260040161024090610c5d565b6102f683838360196106b3565b6065546001600160a01b031633146106215760405162461bcd60e51b815260040161024090610c26565b609955565b6000610632600161098e565b9050801561064a576000805461ff0019166101001790555b610652610a1b565b61065a610a4a565b6099829055609a805460ff1916905580156106af576000805461ff0019169055604051600181527f7f26b83ff96e1f2b6a682f133852f6798a09c465da95921460cefb38474024989060200160405180910390a15b5050565b60008263ffffffff16116106fa5760405162461bcd60e51b815260206004820152600e60248201526d1253959053125117d05353d5539560921b6044820152606401610240565b600060648263ffffffff166099548563ffffffff166107199190610cce565b6107239190610cce565b61072d9190610ced565b905060988585604051610741929190610c4d565b908152604051908190036020019020546001600160a01b03166323b872dd6107663390565b6040516001600160e01b031960e084901b1681526001600160a01b03909116600482015230602482015260448101849052606401602060405180830381600087803b1580156107b457600080fd5b505af11580156107c8573d6000803e3d6000fd5b505050506040513d601f19601f820116820180604052508101906107ec9190610c96565b6108295760405162461bcd60e51b815260206004820152600e60248201526d2a2920a729a322a92fa2a92927a960911b6044820152606401610240565b3360009081526097602052604090205460ff16156108d557336000908152609760205260409020805484919060019061086e908490610100900463ffffffff16610d0f565b92506101000a81548163ffffffff021916908363ffffffff16021790555080609760006108983390565b6001600160a01b03166001600160a01b0316815260200190815260200160002060010160008282546108ca9190610d37565b909155506109359050565b60408051606081018252600180825263ffffffff8681166020808501918252848601878152336000908152609790925295902093518454915164ffffffffff1990921690151564ffffffff00191617610100919092160217825591519101555b5050505050565b606580546001600160a01b038381166001600160a01b0319831681179093556040519116919082907fc7c0c772add429241571afb3805861fb3cfa2af374534088b76cdb4325a87e9a90600090a35050565b60008054610100900460ff16156109d5578160ff1660011480156109b15750303b155b6109cd5760405162461bcd60e51b815260040161024090610d4f565b506000919050565b60005460ff8084169116106109fc5760405162461bcd60e51b815260040161024090610d4f565b506000805460ff191660ff92909216919091179055600190565b919050565b600054610100900460ff16610a425760405162461bcd60e51b815260040161024090610d9d565b61032f610a79565b600054610100900460ff16610a715760405162461bcd60e51b815260040161024090610d9d565b61032f610aa9565b600054610100900460ff16610aa05760405162461bcd60e51b815260040161024090610d9d565b61032f3361093c565b600054610100900460ff16610ad05760405162461bcd60e51b815260040161024090610d9d565b6001603355565b60008083601f840112610ae957600080fd5b50813567ffffffffffffffff811115610b0157600080fd5b602083019150836020828501011115610b1957600080fd5b9250929050565b80356001600160a01b0381168114610a1657600080fd5b600080600060408486031215610b4c57600080fd5b833567ffffffffffffffff811115610b6357600080fd5b610b6f86828701610ad7565b9094509250610b82905060208501610b20565b90509250925092565b600080600060408486031215610ba057600080fd5b833567ffffffffffffffff811115610bb757600080fd5b610bc386828701610ad7565b909450925050602084013563ffffffff81168114610be057600080fd5b809150509250925092565b600060208284031215610bfd57600080fd5b610c0682610b20565b9392505050565b600060208284031215610c1f57600080fd5b5035919050565b6020808252600d908201526c474f5645524e4f525f4f4e4c5960981b604082015260600190565b8183823760009101908152919050565b60208082526006908201526514105554d15160d21b604082015260600190565b600060208284031215610c8f57600080fd5b5051919050565b600060208284031215610ca857600080fd5b81518015158114610c0657600080fd5b634e487b7160e01b600052601160045260246000fd5b6000816000190483118215151615610ce857610ce8610cb8565b500290565b600082610d0a57634e487b7160e01b600052601260045260246000fd5b500490565b600063ffffffff808316818516808303821115610d2e57610d2e610cb8565b01949350505050565b60008219821115610d4a57610d4a610cb8565b500190565b6020808252602e908201527f496e697469616c697a61626c653a20636f6e747261637420697320616c72656160408201526d191e481a5b9a5d1a585b1a5e995960921b606082015260800190565b6020808252602b908201527f496e697469616c697a61626c653a20636f6e7472616374206973206e6f74206960408201526a6e697469616c697a696e6760a81b60608201526080019056fea26469706673582212204a4d44a25742ef7cb405c34ae658c1bfbea6ef083c6d1f2b52dfdfd131aa1a3664736f6c63430008090033",
  "linkReferences": {},
  "deployedLinkReferences": {}
}